:020000040000FA
:030000000200D724
:03001300020C17C5
:03003300020B4974
:03003B00020C7341
:03006B00020A295D
:03007B00020AB9BD
:10008300020BD900000080FBE490030178D17903CF
:100093008002F0A3D8FCD9FA7AD17B0590010778C6
:1000A3001D79018015E493A3AD82AE838A828B838D
:1000B300F0A3AA82AB838D828E83D8E9D9E77582B8
:1000C3005475831274001200E97582867583007477
:1000D300001200E975D00075813F75100175110399
:1000E300759F0002008BC09FF59FE473D09F22D0C1
:1000F30083D082C09FE493C0E0740193C0E0740294
:1001030093F59F22FF0000000000000000000000A4
:100113000000000000C20100000080450000C8424A
:100123001200F2DA0C001200F2810D001200F2E26A
:100133000D001200F2FF0E001200F2880F001200F1
:10014300F22410001200F23410001200F2DD10004D
:100153001200F25513001200F26C13001200F29B0E
:1001630013001200F21814001200F27319001200A7
:10017300F21119001200F28D19001200F292190007
:100183001200F2D518001200F2E518001200F2482E
:1001930017001200F27717001200F27C170012000A
:1001A300F29217001200F2A917001200F2C0170012
:1001B3001200F2EC17001200F21018001200F221E4
:1001C30018001200F22A18001200F233180012006D
:1001D300F24818001200F25D18001200F27C1800B9
:1001E3001200F26615001200F27316001200F2F10B
:1001F30010001200F22B11001200F26D1100120018
:10020300F21312001200F22212001200F22B12005B
:100213001200F28F18001200F2471900E49366707F
:10022300130874019366700C0874029366700508D2
:100233007403936622C3E493960874019396087437
:10024300029396087403939622080808E630E71190
:10025300120711120264080808C64480C618181849
:1002630022181818E9799EC608CAC608CBC608CC56
:10027300C6C370207996CACBCC7019798ECBCC705B
:10028300137986CC700EF9802ACA33CACB33CBCC10
:1002930033CC331930E7F2CCCBCA3350147004EAB1
:1002A30030E00DE4CA3ACACB3BCBCC3CCC5002097C
:1002B300C3E913C6CC182313C6CB18C6CA18C6F98C
:1002C3002212030420F01430E72B74FFFCFBFA74B2
:1002D3007F8022E4FCFBFA7480801AB48008BC009F
:1002E300F2BB00EF800F50EBF9E4C39AFAE49BFBF7
:1002F300E49CFCE499C6CC18C6CB18C6CA18C6F948
:1003030022E4C9C608CAC608CBC6D3330308CCC681
:100313003392F0C3947F402E94184019C9B907044F
:10032300CACBCC225025C309CA33CACB33CBCC3377
:10033300CC33D9F422F4600DC9CCC313CB13CBCA8D
:1003430013CAD9F6CC22E4FCFBFA2214FCFBFA22F2
:10035300E62618461846184622E72719471947196B
:100363004722181818E60846087009E6260870059B
:10037300E633F4220822191919E70947097009E736
:1003830027097005E733F4220922E6084608C31358
:100393004608336002E633F422E7094709C31347EB
:1003A30009336002E733F4220012038D604F120316
:1003B3009C6012E7548066F6120365701112035CA9
:1003C300703B090909F4F618F618F618F622120319
:1003D30079701512035308080860EAE6447FF6189B
:1003E300768018E4F618F622120353601612035CA3
:1003F3007012E4F608F608F608E65480F6090909CF
:1004030018181822EAC0E0EBC0E0ECC0E0EDC0E051
:10041300E687F0A4FBACF008E687F0A42CFCE435F7
:10042300F0FA1809E687F0A42C4B60027401CA3570
:10043300F0FCE433FB09E687F0D2F7A42CCB35F0CC
:10044300FC1908E687F0A42BCC35F0FBE433FD0858
:1004530019E687F0D2E7A42C4ACB35F0CD3400FC63
:1004630009E687F0D2E7A42DCC35F0FDE433FA0991
:1004730018E687F0D2F7A42CCD35F0CA3400FC0877
:10048300E687F0D2E7D2F7A42ACC35F07A7E20E7CC
:100493000B0ACB33CBCD33CDCC33CC33CB3350144E
:1004A3007004ED30E00ED2F1E4CD3DCDCC3CCC3B3D
:1004B3005005DA05C2F1EB547FC63308E63392F0F8
:1004C300FBE73309E733C39A502D2B70190C0D4CFE
:1004D3004D70151806E608C333700D20F10AA2F01B
:1004E30013F6E418800B4024E4F630F0027680180B
:1004F300F618F618F68024D33B14501074FFA2F0BC
:1005030013F6187680E418F618F6800FA2F013F6A7
:1005130018E63303F618ECF618EDF6D0E0FDD0E05C
:10052300FCD0E0FBD0E0FA2212038D7004181818F7
:100533002212039C700D74FFF61819F61819F61899
:1005430019F622E7548066F6120353700F12035C08
:1005530070F014F608F608F608F680D112035C7002
:100563000CF608F608768008E6447F80EC12037CDC
:10057300700C12036860BFE65480F6E480BB12037C
:1005830068700519191980A5E869700C763F18760B
:100593008018F618F6E8F922E6CDC0E018ECC0E0C2
:1005A300E633CD33CDD313F6E719FCE7191933CC72
:1005B30033C3947F400ECD9D502408E65480F6E467
:1005C30018F6800FF4043D14501408E6447FF6181F
:1005D3007680E418F618F6D0E0FCD0E0FD22CCD308
:1005E30013CCFD18E4C6CBC0E018E4C6CAC0E008CB
:1005F30008ED08C633E613F618E433C675F003C3F3
:10060300CA97CA09CB97CB199C40047D08802EBD9D
:1006130000030206D416B6FF050606081618C3CA59
:1006230033CACB33CB33CA27CA09CB37CB193CC325
:100633007D08803E187D0820E75CC633C6CA33CAEE
:10064300CB33CB33DDF1D5F0EB30E77BCA97CA0967
:10065300CB974ACB199C406F4B7025E620E0218055
:1006630066187D08C3CA97CA09CB97CB199CD3C612
:1006730033C6CA33CACB33CB3350C9DDE7D5F0E138
:10068300D3E4C636C608C636C608C636C608C63656
:10069300C61818188031C3CA97CA09CB97CB199CBF
:1006A300B34097C633C6CA33CACB33CB33DD34D555
:1006B300F02EC6A2E0C640C8CA27CA09CB37194ADA
:1006C30070BECB3CB480B90808E63308E633601F3C
:1006D300181818D0E0FAD0E0FBD0E0FCD0E0FD22FF
:1006E300187D08CA27CA09CB37CB193CD38080139E
:1006F300F618E4B67F11F618B6FF0EF618C60470A6
:10070300D20808768080CAF618F618F680C518183D
:1007130018E4C396F608E496F608E496F608E49619
:10072300F622E0F608A3E0F608A3E0F608A3E0F655
:1007330022E6F008A3E6F008A3E6F008A3E6F02219
:10074300E0FAA3E0FBA3E0FCA3E0FD22EAF0A3EBC5
:10075300F0A3ECF0A3EDF022CAC0E0E6F0A308DAC0
:10076300FAD0E0FA22700422600D18C6C333C6081B
:10077300C633C6D5E0F41822251010AF08F5104093
:100783000C15118008F51040021511D2AF2200C0DC
:10079300D0251010AF08F510500C05118008F51086
:1007A30050020511D2AFD0D0222510F58210AF0828
:1007B300F510400C15118008F51040021511D2AF49
:1007C300851183222510F582E43511F58322E47324
:1007D3002510C582C0E0E51134FFC583C0E0E510F4
:1007E300C3958224F810AF08858311858210800891
:1007F300858311858210D2AFCEF0A3E520F0A378D4
:1008030008E608F0A3DEFAEFF0A3E58124FAF8E6A0
:1008130008F0A3E608F0A3E608F0A30808E608F04A
:10082300A3E608F0A315811581D0E0FED0E0F8150A
:100833008115811581E8C0E0EEC0E0228511838532
:100843001082E0A3FEE0A3F5207808E0A3F608DF1A
:10085300FAE0A3FFE0A3C0E0E0A3C0E0E0A3C0E0B0
:10086300E0A3C0E0E0A3C0E010AF08858210858359
:10087300118008858210858311D2AFD083D0820284
:1008830000EFC0D02510C582C0E0E51134FFC58359
:10089300C0E0E510C3958224F310AF08858311856A
:1008A30082108008858311858210D2AFC8F0A3E936
:1008B300F0A3EAF0A3EBF0A37908E709F0A3D8FAD1
:1008C300ECF0A3EDF0A3EEF0A3EFF0A3D0E0F0A3E0
:1008D300D0E0F0A3D0E0F0A3E520F0A3E5F0F0A38F
:1008E30022851183851082E0C0E0A3E0F9A3E0FA3A
:1008F300A3E0FBA37808E0F608A3DFFAE0FCA3E09B
:10090300FDA3E0FEA3E0FFA3E0C0E0A3E0C0E0A3FB
:10091300E0F5D0A3E0F520A3E0A3F5F010AF088540
:1009230083118582108008858311858210D2AFD010
:1009330082D083D0E0F8D0E03274028000C0E0F4CB
:10094300041207ACD0E012075B22D083D082ECC044
:10095300E0EDC0E0EEC0E0EFC0E0E493A3FCE4937D
:10096300A3FDE493A3FEE493A3FFEF4E4D4C601568
:100973001209C9EC24FFFCED34FFFDEE34FFFEEF5A
:1009830034FFFF80E5E493A3FCE493A3FDE493A386
:10099300FEE493A3FFEF4E4D4C6015120A06EC24C0
:1009A300FFFCED34FFFDEE34FFFEEF34FFFF80E587
:1009B300D0E0FFD0E0FED0E0FDD0E0FCE493A3C0A4
:1009C300E0E493C0E022C0E0C0F088F0120238A84F
:1009D300F0400712021FA8F0701AA3A3A3A31202E8
:1009E30038A8F0A3A3A3A34013D0F0D0E0D0E0D065
:1009F300E00209B3A3A3A3A3A3A3A3A3A3A3D0F038
:100A0300D0E022C0E0C0F088F012021FA8F0A3A338
:100A1300A3A3700BD0F0D0E0D0E0D0E00209B3A3E1
:100A2300A3D0F0D0E022C0E074F1120885C2C5E57E
:100A330089607E7E008074750801750900EE780870
:100A4300120768E508AF08E5895F605EEEF8790094
:100A5300E875F002A4C8AAF075F000A42AFA75F0AC
:100A630002E9A42AF9740E28F582740439F583E0A7
:100A7300F8A3E0F9E849602EEEF87900E875F00292
:100A8300A4C8AAF075F000A42AFA75F002E9A42A12
:100A9300F9740E28F582740439F583E0F8A3E0F5C0
:100AA3008388821207D1EFF452890EEEC394084073
:100AB300867F020208E4C0E074F1120885C2EBE508
:100AC3008A607E7E008074750801750900EE7808DF
:100AD300120768E508AF08E58A5F605EEEF8790003
:100AE300E875F002A4C8AAF075F000A42AFA75F01C
:100AF30002E9A42AF9741E28F582740439F583E007
:100B0300F8A3E0F9E849602EEEF87900E875F00201
:100B1300A4C8AAF075F000A42AFA75F002E9A42A81
:100B2300F9741E28F582740439F583E0F8A3E0F51F
:100B33008388821207D1EFF4528A0EEEC3940840E1
:100B4300867F020208E4C0E074F1120885C2E8E57A
:100B53008B607E7E008074750801750900EE78084D
:100B6300120768E508AF08E58B5F605EEEF8790071
:100B7300E875F002A4C8AAF075F000A42AFA75F08B
:100B830002E9A42AF9742E28F582740439F583E066
:100B9300F8A3E0F9E849602EEEF87900E875F00271
:100BA300A4C8AAF075F000A42AFA75F002E9A42AF1
:100BB300F9742E28F582740439F583E0F8A3E0F57F
:100BC3008388821207D1EFF4528B0EEEC394054053
:100BD300867F020208E4C0E074F2120885A2AFE443
:100BE30033FEC2AFE5E9A2E65020900438E0F8A353
:100BF300E0F9E849600E900438E0F8A3E0F5838853
:100C0300821207D1759B0053E9BFEEA2E092AF7F3A
:100C1300010208E4C0E0C0D0E8C0E0E9C0E0C0825F
:100C2300C083E5C1C0E09004BBE0F87900743A28C2
:100C3300F582740439F583D0E0F09004BAE0F890BB
:100C430004BBE0687006E5959004BCF09004BBE03B
:100C530024019004BBF0C3948040069004BB74004D
:100C6300F0D083D082D0E0F9D0E0F8D0D0D0E03219
:100C7300C0E0C0D0E8C0E0C008C009C082C0839013
:100C8300053DE0F890053EE068700B539AFB900534
:100C93003F7401F08031C2E990053DE0F50874012D
:100CA300250890053DF075090074BD2508F582748B
:100CB300043509F583E0F5C190053DE0C394804018
:100CC3000690053D7400F0D083D082D009D008D0BF
:100CD300E0F8D0D0D0E03274F71207D3E9FEEAF897
:100CE300EBF9E8FAE9FB740B2E8A828B83F090030D
:100CF30008E0F8A3E0F5838882A3A3A3A3A3E0609D
:100D03000678617988800478417988E88A828B83C0
:100D1300A3F0E4E9F88A828B83A3A3F0900301E0B4
:100D23008A828B83A3A3A3F0900308E0F8A3E0F5E2
:100D3300838882A3A3E0F8A3E0F98A828B83A3A329
:100D4300A3A3E8F0A3E9F08A828B83A3A3A3A3A3BD
:100D5300A3ECF0A3EDF0900308E0F8A3E0F583889B
:100D630082E0F8A3E0F98A828B83A3A3A3A3A3A3BE
:100D7300A3A3E8F0A3E9F0790A7F0102083F74F224
:100D83001207D3ECFEEDFF8908A908EAFCEBFD7A14
:100D93000A7B03120123E9FB7A0080348A0A750B6C
:100DA30000EE250AF582EF350BF583E0C0E08B0AF0
:100DB300750B008A0C750D00E50A250CF8E50B355B
:100DC3000DF9740A28F582740339F583D0E0F00A2B
:100DD300EAC3950840C6EB2508F97F0602083F746D
:100DE300F71207D37E7D7F031201CB1201777901BE
:100DF300EEFAEFFB1201B38E828F83E0C2E7F08E2F
:100E0300828F83E0640570528E828F83E0F97A7E4D
:100E13007B031201B38E828F83A3E0A2E55004D239
:100E2300F08002C2F0A2F0E4339005D9F078817922
:100E33000388828983A3E0A2E74003020EF48E8233
:100E43008F83A3A3A3E0F8900301E0686003020E7D
:100E5300F49003027401F0020EF48E828F83E02477
:100E6300F59005D6F08E828F83E0F97A7E7B0312AC
:100E730001B38E828F83A3E0A2E55004D2F08002F7
:100E8300C2F0A2F0E4339005D9F08E828F83A3A33E
:100E9300A3A3A3A3A3A3E0F8A3E0F99005D2E8F0EA
:100EA300A3E9F09005D77487F0A37403F09005D6F7
:100EB300E0F83395E0F99005D7E028F8A3E039F995
:100EC30088828983E09005DAF088828983A3E0A28F
:100ED300E750128E828F83A3E054DF644170069043
:100EE30005DB7401F08E828F83A3A3A3E09005D169
:100EF300F012017D1201D17F0102083F74F712073E
:100F0300D3EAFEEBFF12018FE964017004790180DB
:100F13006F12017D900308EEF0A3EFF09005D774F4
:100F230000F0A37400F09003037401F09005DD1248
:100F3300074390030412074F900308E0F8A3E0F57A
:100F4300838882A3A3A3A3E0F912019B900308E083
:100F5300F8A3E0F5838882E0FAA3E0FB1201A190F5
:100F63000308E0F8A3E0F5838882A3A3E0FAA3E0F3
:100F7300FB1201A77A2F7B011201D71201777900A7
:100F83007F0102083F74F41207D3EAFEEBFF8C0AD9
:100F93008D0B8908900303E070031201BFE508C3BA
:100FA3009467500585080980037509678509081248
:100FB30001DD1201CBA908AC0AAD0BEEFAEFFB126F
:100FC3000129E9F97A0A7B031201AD1201D1120159
:100FD300B9E960027E01900308E0F8A3E0F5838895
:100FE30082A3A3A3A3A3E0601C9003027400F07A7E
:100FF3004A7B02120189900302E0600474008002BC
:101003007401FE80027E00900303E070031201C5A9
:10101300EE7007900301E02401F0EEF97F0402086B
:101023003FC082C0839005DBE0F9D083D082020009
:10103300EF74F21207D38A0A8B0BECFEEDFF740EEA
:101043001207C7E0F508A3E0F50912017D9005D664
:10105300E0F83395E0F9C3E89EE99F500D9005D67B
:10106300E0F50C3395E0F50D80048E0C8F0D780CB4
:1010730012093C9005D7E0FCA3E0FDAA0AAB0B12D2
:1010830002137402120791E50845096026120195BF
:10109300E9F50A9005DAE0F83395E0F9750B00E815
:1010A300C3950AF8E9950BF9850882850983E8F069
:1010B300A3E9F09005DB7400F01201779005D6E008
:1010C300F83395E0F9C3E89EE99F50079005D6E011
:1010D300F98002EEF97F0602083FC082C0839003C5
:1010E300037401F01201BFD083D0820200EFC082EB
:1010F300C0839005CD7401F0A37400F09005CF7404
:1011030011F09005CB7409F0A37400F09005D0742E
:1011130001F07ACB7B05120135E9640160F4120119
:101123004DD083D0820200EFC008C00943F22043B0
:10113300F32053FDDF75B63543B43043B440E5B413
:10114300A2E750FAE5BA1313543FFA7B00E5BBF567
:101153000875090074047808120768E5084AFAE577
:10116300094BFBD009D0080200EF74F01207D374C7
:10117300FB12077B7E007F0074011207C77400F027
:10118300A37400F0A37400F0A37400F085108285AB
:1011930011837400F01201F58A088B09AE08AF09B8
:1011A3007400C39EFE74109FFF8E08EFF5093395FC
:1011B300E0F50AF50B780812024C9005E5780C125D
:1011C30007257808790C12052B74011207C77808D4
:1011D30012073474011207C778081207259005E92E
:1011E300780C1207257808790C1203AB78081202E1
:1011F300C4E508C0E0851082851183D0E0F0851036
:1012030082851183E0F974051207917F0802083F74
:1012130053F4EC43FE13C290C291C2940200EF5305
:10122300F39F53FD9F0200EF7C007D00801308E8CD
:10123300700109C3E8944CE9940440F20CEC70018A
:101243000DC3EC9AED9B50067800790080E502000F
:10125300EF12016B1201EF12020112020753F37F27
:1012630053F3FE43FD018013C280D2F0A29030F00D
:1012730001B392907AE87B0312020D75080A75098F
:1012830000780812093C7C007D007AC07B051202BD
:101293001974021207911201651201FBE99005CA44
:1012A300F0900401E024309005C0F0900402E024A3
:1012B300309005C1F09003FFE024309005C2F09018
:1012C3000400E024309005C3F0A2864004D2F080ED
:1012D30002C2F0A2F0E43324309005C4F075F00AA2
:1012E3009005CAE08424309005C5F09005CAE075E6
:1012F300F00A84E5F024309005C6F07C077D007A7F
:10130300C07B051201E979077CC07D057A077B0064
:1013130012013BE9120141E9700302126DD2F0A2FE
:101323009130F001B39291E4F508F50978081209B8
:101333003C7C807D007A407B0512014774021207D2
:1013430091E9900540E06431600302126BD28002A0
:10135300126D780A7900E8FAE9FBEA24FFF8EB3426
:10136300FFF9EA4B70F00200EF74F71207D3EAFEBD
:10137300EBFFEEF8EFF9E824FFFEE934FFFFE8495D
:101383006011750800E508C3946450E61201530523
:101393000880F27F0102083F74F71207D37E0080B2
:1013A3001690040DE0C33390040DF09003FEE0F8B3
:1013B30090040DE048F00EEEC3940850539003FDE3
:1013C3007402F0A287400F9003FDE0F874012890A7
:1013D30003FDF0E870ED1201531201531201539013
:1013E30003FE7400F0A28750069003FE7401F09090
:1013F30003FD7402F0A287500F9003FDE0F874011F
:10140300289003FDF0E870ED9003FDE06401709116
:101413007F0102083FC082C083C2877A147B001217
:101423000159D28753FD7F12015312015312015305
:10143300120153A28750030215449003FD7402F076
:10144300A287400F9003FDE0F87401289003FDF09C
:10145300E870ED9003FD7402F0A287500F9003FD36
:10146300E0F87401289003FDF0E870ED12015F903D
:10147300040DE090040AF012015F90040DE0900463
:101483000BF012015F90040DE0900408F012015F6D
:1014930090040DE0900409F012015F90040DE090B8
:1014A300040CF0D28790040BC082C08390040AC05E
:1014B30082C083900409C082C083900408E0D08373
:1014C300D082F8E028D083D082F8E028D083D0827D
:1014D300F8E0289003FEF09003FEE0F890040CE09F
:1014E30068702890040AE0900405F090040BE090E3
:1014F3000406F0900408E0900403F0900409E090DF
:101503000404F090040CE0900407F075F00A9004D2
:1015130003E084900401F0900403E075F00A84E58D
:10152300F0900402F075F00A900405E0849003FF44
:10153300F0900405E075F00A84E5F0900400F08073
:10154300189004017402F09004027401F09003FFF8
:101553007401F09004007405F043FD80D083D082C1
:101563000200EF74F41207D38A088B098C0A8D0BDF
:1015730053F1FE43F30C53F2F375868075C4807800
:101583000812094D000000000C000000B004000028
:10159300D91560090000E115C0120000E915802586
:1015A3000000F11540380000F915004B000001164A
:1015B30080700000091600960000111600E100007B
:1015C3001916002C0100211600C2010029160084FF
:1015D30003003116391675C23B75C505805E75C2A9
:1015E3003B75C506805675C23B75C507804E75C2EF
:1015F3003B75C508804675C2D875C508803E75C25F
:101603003B75C509803675C2D875C509802E75C26C
:101613003B75C50A802675C2D875C50A801E75C27A
:101623003B75C50B801675C2D875C50B800E75C288
:10163300D875C50C800675C23B75C50A75C40243CF
:101643008640D2AA75C1009004BA7400F09004BB1E
:101653007400F090053D7400F090053E7400F09026
:1016630004BC7400F090053F7400F07F0402083F4F
:1016730074F71207D390053DE0F890053EE0C39858
:10168300501F90053DE0F8790090053EE0FE7F0095
:10169300E8C39EF8E99FF9E824FFF8E934FFF980ED
:1016A3003790053EE0F87900C3E498F8E499F9909F
:1016B300053DE0FE7F00E82EF8E93FF9E8247FF8D6
:1016C300E93400F9C3E89CE99D5004D2F08002C2DA
:1016D300F0A2F0E433F87900E84960067A007B0071
:1016E300805E78007900801290053EE02401F0438B
:1016F3009A04E82401F8E93400F9C3E89CE99D5011
:101703003B8A828B83E0C0E090053EE0FE7F00745D
:10171300BD2EF58274043FF583D0E0F08A828B837B
:10172300A3AA82AB8390053F7400F090053EE0C30B
:10173300947F40B490053E7400F080B3E8FAE9FB6F
:101743007F0102083FC082C083906189E04460F05A
:1017530090619074D5F09061FA7409F09061B2745D
:1017630015F09061AE7400F01201D17900D083D0EE
:10177300820200EF79490200EFC082C08375F00551
:10178300E9A424D490618FF0D083D0820200EFC00B
:1017930082C083EA906174F0E4EBFA906175F0D053
:1017A30083D0820200EFC082C083EA906172F0E4CA
:1017B300EBFA906173F0D083D0820200EF74F612DB
:1017C30007D375E1EE7591FD7800801388087509DC
:1017D30000EA2508F582EB3509F583E0F5D908E839
:1017E300C39940E87F0202083FC082C0838011E5AD
:1017F300D98A828B83F08A828B83A3AA82AB8319D3
:10180300E9C3940150E9D083D0820200EF75E1E986
:10181300E591A2E150FA7591FD79000200EF75E1BF
:10182300EC75E1E30200EF75E1EF75E1EC0200EF27
:10183300C082C0839061A3E0C2E6F0539AFED083D6
:10184300D0820200EFC082C0839061A3E0D2E6F0B1
:10185300439A01D083D0820200EFC082C083A2AF3B
:10186300E433F8C2AF900438EAF0A3EBF0E8A2E067
:1018730092AFD083D0820200EFC082C08390619385
:10188300E0542270F8D083D0820200EF74F612077E
:10189300D3EAF8EBF9740A1207C7E0FEA3E0FF806E
:1018A300188C828D83E088828983F0A3A882A98320
:1018B3008C828D83A3AC82AD838E088F09E50824C7
:1018C300FF1EE50934FFFFE508450970D47F0202D6
:1018D300083FC082C0837900120171D083D0820295
:1018E30000EFEBC313FBEA13FAEAF8EBF9E824FF82
:1018F300FAE934FFFBE84960120000000000000031
:1019030000000000000000000080DE0200EFE5C6DA
:101913005480F853BEFBE59DA2E550FAE59DA2E293
:1019230040F4007401697007744948F5C68005E9FD
:10193300700288C6E5C6F8E59EFAE86A70F943BE08
:10194300040200EFC082C083851082851183E0F812
:10195300A3E0F9E84960128A828B83ECF0A3E824C0
:10196300FF18E934FFF94870F2D083D0820200EF08
:10197300C082C0831201839005E11207431201E381
:10198300120177D083D0820200EFD2AF0200EFC200
:04199300AF0200EFB0
:04000005000000D720
:00000001FF
