:020000040000FA
:030000000200D724
:03001300020E6C6E
:03003300020D9F1C
:03003B00020EC9E9
:03006B00020C8103
:03007B00020D1063
:10008300020E2E00000080FBE49003017835790412
:100093008002F0A3D8FCD9FA7A357B069001077861
:1000A3009479088015E493A3AD82AE838A828B830F
:1000B300F0A3AA82AB838D828E83D8E9D9E77582B8
:1000C3009E75831274001200E9758286758300742D
:1000D300001200E975D00075813F750E01750F039D
:1000E300759F0002008BC09FF59FE473D09F22D0C1
:1000F30083D082C09FE493C0E0740193C0E0740294
:1001030093F59F22FF0000000000000000000000A4
:1001130000C201001060028C0000FE929292929243
:10012300FE00000004047E01407E42427E427E4285
:10013300427E40000000FC242424FC252624FC24C9
:100143002424040040308F80844C55252525554CAC
:10015300808080001060028C00FE929292929292B4
:10016300FE00000004047E014448507F40407F505D
:10017300484440000000FC242424FC252624FC24BD
:100183002424040040308F80844C55252525554C6C
:1001930080808000109453321E325210007E4242FF
:1001A300427E0000000000FF49494949494949FF8F
:1001B3000000000008CC4A49484ACC18007F8888D0
:1001C3008482E00000FF121252927F00007E888832
:1001D3008482E000040404846F040404E4048F4470
:1001E30024040400040201FF001008043F414040BE
:1001F30040407800100C2424A46425262424A4243D
:1002030024140C00404048494949497F4949494B16
:100213004840400000004040404040FF40404040D4
:1002230040000000404040404040407F404040404C
:10023300404040001010FF100082BAEABA83BAEAC5
:10024300BA82000008180F04484A2AFF8A4A1A2F64
:100253005A8A88001060028C00FE929292929292C7
:10026300FE00000004047E014448507F40407F505C
:10027300484440000000FC242424FC252624FC24BC
:100283002424040040308F80844C55252525554C6B
:1002930080808000000000000000000000000000DB
:1002A30000000000000000F8000000000000003320
:1002B3003000000000100C06100C060000000000C7
:1002C3000000000040C07840C0784000043F0404B0
:1002D3003F040400007088FC08300000001820FF71
:1002E300211E0000F008F000E018000000211C03AC
:1002F3001E211E0000F00888700000001E21232428
:100303001927211010160E00000000000000000045
:1003130000000000000000E01804020000000007D5
:100323001820400000020418E000000000402018DC
:1003330007000000404080F0804040000202010FAF
:1003430001020200000000F0000000000101011F93
:1003530001010100000000000000000080B07000F7
:100363000000000000000000000000000001010187
:100373000101010100000000000000000030300016
:1003830000000000000000008060180400601806F0
:100393000100000000E010080810E000000F10202A
:1003A30020100F00001010F8000000000020203F74
:1003B30020200000007008080888700000302824FE
:1003C300222130000030088888483000001820209F
:1003D30020110E000000C02010F8000000070424C4
:1003E300243F240000F80888880808000019212009
:1003F30020110E0000E0108888180000000F112063
:1004030020110E0000380808C83808000000003F1B
:10041300000000000070880808887000001C22217A
:1004230021221C0000E010080810E0000000312227
:1004330022110F00000000C0C000000000000030C7
:100443003000000000000080000000000000806019
:10045300000000000000804020100800000102049A
:100463000810200040404040404040000404040481
:10047300040404000008102040800000002010083D
:1004830004020100007048080808F0000000003072
:1004930036010000C030C828E810E0000718272400
:1004A30023140B000000C038E0000000203C2302AE
:1004B3000227382008F8888888700000203F202011
:1004C30020110E00C0300808080838000718202043
:1004D3002010080008F808080810E000203F20203A
:1004E30020100F0008F88888E8081000203F20201B
:1004F3002320180008F88888E8081000203F20000F
:1005030003000000C0300808083800000718202046
:10051300221E020008F808000008F808203F210105
:1005230001213F20000808F8080800000020203FB0
:100533002020000000000808F8080800C080808020
:100543007F00000008F888C028180800203F200119
:100553002638200008F8080000000000203F202073
:100563002020300008F8F800F8F80800203F003F8A
:10057300003F200008F830C00008F808203F2000A2
:1005830007183F00E01008080810E0000F102020B3
:1005930020100F0008F808080808F000203F210188
:1005A30001010000E01008080810E0000F182424DF
:1005B30038504F0008F8888888887000203F200052
:1005C300030C302000708808080838000038202108
:1005D30021221C00180808F8080818000000203F12
:1005E3002000000008F808000008F808001F202079
:1005F30020201F000878880000C83808000007384A
:100603000E010000F80800F80008F800033C07009A
:10061300073C0300081868808068180820302C0302
:10062300032C30200838C800C83808000000203FD9
:100633002000000010080808C838080020382621C8
:1006430020201800000000FE020202000000007FCC
:1006530040404000000C30C00000000000000001DA
:100663000638C00000020202FE00000000404040C5
:100673007F000000000004020202040000000000EA
:100683000000000000000000000000008080808067
:10069300808080800002020400000000000000004F
:1006A30000000000000080808080000000192422E8
:1006B30022223F2008F8008080000000003F112024
:1006C30020110E000000008080800000000E112029
:1006D30020201100000000808088F800000E112007
:1006E30020103F200000808080800000001F222215
:1006F30022221300008080F0888888180020203F81
:10070300202000000000808080808000006B949493
:100713009493600008F8008080800000203F21004F
:1007230000203F2000809898000000000020203F18
:1007330020200000000000809898000000C0808006
:10074300807F000008F8000080808000203F2402A2
:100753002D302000000808F8000000000020203F92
:10076300202000008080808080808000203F200047
:100773003F20003F8080008080800000203F2100D8
:1007830000203F200000808080800000001F202088
:1007930020201F00808000808000000080FFA120B7
:1007A30020110E000000008080808000000E1120C8
:1007B30020A0FF80808080008080800020203F2157
:1007C300200001000000808080808000003324240A
:1007D30024241900008080E0808000000000001FB6
:1007E300202000008080000000808000001F202067
:1007F30020103F20808080000080808000010E3028
:100803000806010080800080008080800F300C0388
:100813000C300F0000808000808080000020312E8B
:100823000E312000808080000080808080818E7067
:100833001806010000808080808080000021302C19
:100843002221300000000000807C02020000000032
:10085300003F404000000000FF00000000000000D7
:10086300FF0000000002027C800000000040403FC7
:100873000000000000060101020204040000000061
:10088300000000003A303043003A3030524825002F
:100893003A3030524825001200F23E14001200F2A2
:1008A300F614001200F24E15001200F26B1600123D
:1008B30000F2FA16001200F28D17001200F29D17D3
:1008C300001200F24418001200F2311C001200F270
:1008D300FD1B001200F24B1C001200F2501C001210
:1008E30000F2C11B001200F2D11B001200F2331AF6
:1008F300001200F2621A001200F2671A001200F2EC
:100903007D1A001200F2951A001200F2AD1A0012BD
:1009130000F2D71A001200F2FC1A001200F20D1BAB
:10092300001200F2161B001200F21F1B001200F24D
:10093300341B001200F2491B001200F2681B001264
:1009430000F25818001200F26519001200F22B0F82
:10095300001200F2500F001200F2770F001200F2A3
:100963009E0F001200F2C60F001200F2FE0F0012DB
:1009730000F2BA10001200F2BC11001200F257127A
:10098300001200F29112001200F27B1B00E4936646
:1009930070130874019366700C08740293667005F3
:1009A300087403936622C3E493960874019396082C
:1009B30074029396087403939622E0FAA3E0FBA3D0
:1009C300E0FCA3E0FD22CAC0E0E6F0A308DAFAD017
:1009D300E0FA22700422600D18C6C333C608C6337A
:1009E300C6D5E0F4182200C0D0250E10AF08F50ECE
:1009F300500C050F8008F50E5002050FD2AFD0D072
:100A030022250EF58210AF08F50E400C150F800855
:100A1300F50E4002150FD2AF850F8322250EF58206
:100A2300E4350FF58322E473250EC582C0E0E50F9C
:100A330034FFC583C0E0E50EC3958224F810AF08E8
:100A430085830F85820E800885830F85820ED2AF42
:100A5300CEF0A3E520F0A37808E608F0A3DEFAEFD2
:100A6300F0A3E58124FAF8E608F0A3E608F0A3E68C
:100A730008F0A30808E608F0A3E608F0A31581151B
:100A830081D0E0FED0E0F8158115811581E8C0E042
:100A9300EEC0E022850F83850E82E0A3FEE0A3F57E
:100AA300207808E0A3F608DFFAE0A3FFE0A3C0E0A4
:100AB300E0A3C0E0E0A3C0E0E0A3C0E0E0A3C0E0A7
:100AC30010AF0885820E85830F800885820E85838B
:100AD3000FD2AFD083D0820200EFC0D0250EC582E3
:100AE300C0E0E50F34FFC583C0E0E50EC395822463
:100AF300F310AF0885830F85820E800885830F85E9
:100B0300820ED2AFC8F0A3E9F0A3EAF0A3EBF0A3FF
:100B13007908E709F0A3D8FAECF0A3EDF0A3EEF01F
:100B2300A3EFF0A3D0E0F0A3D0E0F0A3D0E0F0A3D4
:100B3300E520F0A3E5F0F0A322850F83850E82E084
:100B4300C0E0A3E0F9A3E0FAA3E0FBA37808E0F692
:100B530008A3DFFAE0FCA3E0FDA3E0FEA3E0FFA30C
:100B6300E0C0E0A3E0C0E0A3E0F5D0A3E0F520A35C
:100B7300E0A3F5F010AF0885830F85820E8008850A
:100B8300830F85820ED2AFD082D083D0E0F8D0E03D
:100B93003274028000C0E0F404120A04D0E01209A7
:100BA300C922D083D082ECC0E0EDC0E0EEC0E0EF1C
:100BB300C0E0E493A3FCE493A3FDE493A3FEE493D6
:100BC300A3FFEF4E4D4C6015120C21EC24FFFCEDFE
:100BD30034FFFDEE34FFFEEF34FFFF80E5E493A323
:100BE300FCE493A3FDE493A3FEE493A3FFEF4E4D34
:100BF3004C6015120C5EEC24FFFCED34FFFDEE346B
:100C0300FFFEEF34FFFF80E5D0E0FFD0E0FED0E051
:100C1300FDD0E0FCE493A3C0E0E493C0E022C0E095
:100C2300C0F088F01209A9A8F04007120990A8F0B3
:100C3300701AA3A3A3A31209A9A8F0A3A3A3A34073
:100C430013D0F0D0E0D0E0D0E0020C0BA3A3A3A319
:100C5300A3A3A3A3A3A3D0F0D0E022C0E0C0F08855
:100C6300F0120990A8F0A3A3A3A3700BD0F0D0E0D7
:100C7300D0E0D0E0020C0BA3A3D0F0D0E022C0E080
:100C830074F1120ADDC2C5E589607D7E008073754B
:100C93000801750900EE78081209D6E508FFE58911
:100CA3005F605EEEF87900E875F002A4C8AAF075FB
:100CB300F000A42AFA75F002E9A42AF974FD28F5D4
:100CC30082740339F583E0F8A3E0F9E849602EEE76
:100CD300F87900E875F002A4C8AAF075F000A42A18
:100CE300FA75F002E9A42AF974FD28F58274033930
:100CF300F583E0F8A3E0F5838882120A29EFF45222
:100D0300890EEEC3940840877F02020B3CC0E07457
:100D1300F1120ADDC2EBE58A607D7E0080737508FF
:100D230001750900EE78081209D6E508FFE58A5F28
:100D3300605EEEF87900E875F002A4C8AAF075F0D9
:100D430000A42AFA75F002E9A42AF9740D28F582A1
:100D5300740439F583E0F8A3E0F9E849602EEEF86E
:100D63007900E875F002A4C8AAF075F000A42AFA85
:100D730075F002E9A42AF9740D28F582740439F593
:100D830083E0F8A3E0F5838882120A29EFF4528AFC
:100D93000EEEC3940840877F02020B3CC0E074F15F
:100DA300120ADDC2E8E58B607D7E00807375080161
:100DB300750900EE78081209D6E508FFE58B5F6038
:100DC3005EEEF87900E875F002A4C8AAF075F000A9
:100DD300A42AFA75F002E9A42AF9741D28F582748D
:100DE3000439F583E0F8A3E0F9E849602EEEF879D9
:100DF30000E875F002A4C8AAF075F000A42AFA75F9
:100E0300F002E9A42AF9741D28F582740439F583E4
:100E1300E0F8A3E0F5838882120A29EFF4528B0EDF
:100E2300EEC3940540877F02020B3CC0E074F212CC
:100E33000ADDA2AFE433FEC2AFE5E9A2E65020909B
:100E43000427E0F8A3E0F9E849600E900427E0F8EE
:100E5300A3E0F5838882120A29759B0053E9BFEE4C
:100E6300A2E092AF7F01020B3CC0E0C0D0E8C0E03B
:100E7300E9C0E0C082C083A8C1E8C0E09004AAE052
:100E8300F87900742928F582740439F583D0E0F0E9
:100E93009004A9E0F89004AAE0687006E595900430
:100EA300ABF09004AAE024019004AAF0C39480401C
:100EB300069004AA7400F0D083D082D0E0F9D0E089
:100EC300F8D0D0D0E032C0E0C0D0E8C0E0E9C0E064
:100ED300C082C08390052CE0F890052DE068700B6C
:100EE300539AFB90052E7401F0802EC2E990052CD5
:100EF300E0F874012890052CF0E8F8790074AC2828
:100F0300F582740439F583E0F5C190052CE0C394B0
:100F130080400690052C7400F0D083D082D0E0F995
:100F2300D0E0F8D0D0D0E032801C78087907E8FC14
:100F3300E9FDEC24FFF8ED34FFF9EC4D70F0EA2401
:100F4300FFFAEB34FFFBEA4B70E00200EF78087422
:100F530000D28078008009D293D292E9C333F90892
:100F6300E8C39408500BC29274805970EAC293800C
:100F7300E80200EF78087400C28078008009D293F9
:100F8300D292E9C333F908E8C39408500BC29274B0
:100F9300805970EAC29380E80200EF74F7120A2BBB
:100FA300E9FEEAFF74B02FF912095AEEC4540F4454
:100FB30010F912095A740F5E4401F912095A7F019C
:100FC300020A9774F7120A2B89087F00800DA9087B
:100FD3001209540EEEC3948040F40FEFC3940850EB
:100FE3001574B02FF912095A790112095A7910129E
:100FF300095A7E0080DE7F01020A97C082C08353B4
:10100300F3FE43FD0153F47343FE8CD292C2977AED
:10101300327B0012094ED29779AE12095A79001227
:10102300095A791012095A794012095A7981120919
:101033005A79CF12095A79A112095A79C812095A51
:1010430079A612095A79A812095A793F12095A79CD
:10105300D312095A790012095A79D512095A79809B
:1010630012095A79D912095A79F112095A79DA12FD
:10107300095A791212095A79DB12095A794012096D
:101083005A792012095A790212095A798D12095A8A
:10109300791412095A79A412095A79A612095A79AC
:1010A300AF12095A79FF1209667A007900120960B2
:1010B300D083D0820200EF74F2120A2B89088A0AC5
:1010C300ECFEEDFF750B00750900750C0085080D2E
:1010D300850A08850D0A75F008E508A4F50875F07A
:1010E30002E50AA4F50A8045E50BF87900E875F0F6
:1010F30010A4C8AAF075F000A42AFA75F010E9A4A8
:101103002AF9E509FA7B00E82AF8E93BF974CD28C6
:10111300F582740739F583E0F91209540509E509E5
:10112300C3940840C374082508F508050CE50CF8BA
:101133007900EE28F582EF39F583E06077E50CF866
:101143007900EE28F582EF39F583E024E0F50BE52D
:1011530008C394794005750800050AAA0AA908126C
:1011630009607509008036E50BF87900E875F01021
:10117300A4C8AAF075F000A42AFA75F010E9A42A0D
:10118300F9E509FA7B00E82AF8E93BF974C528F583
:1011930082740739F583E0F91209540509E509C397
:1011A300940840C37401250AFAA908120960750955
:1011B300000211217F06020A9774F3120A2B890990
:1011C3008A0A8B0B750800E50BFE7F00EE75F02095
:1011D300A4CEA8F075F000A428F875F020EFA42899
:1011E300FF85090C850A09850C0A75F010E509A429
:1011F300F50975F002E50AA4F50AAA0AA909120974
:1012030060750800801674452EF58274063FF583D9
:10121300E0F91209540EEE70010F0508E508C394B6
:101223001040E37401250AFAA90912096075080040
:10123300801674452EF58274063FF583E0F9120992
:10124300540EEE70010F0508E508C3941040E37FC8
:1012530005020A97C082C0839006317401F0A3741B
:1012630000F09006337411F090062F7407F0A37406
:1012730000F09006347401F07A2F7B061208ACE973
:10128300640160F41208C4D083D0820200EF53F4E7
:10129300FC43FE03C290C2910200EF1208CA120976
:1012A3007E12098412096C02134E9005AF7430F05C
:1012B30079017CAF7D057A097B001208B2E97B04D2
:1012C3007A0279001209787B057A0379001209788A
:1012D3007B067A0479001209787B077A0579001274
:1012E30009787CC17D0D7A0879011209727B087A2D
:1012F3000079011209787B097A0179011209787B57
:101303000A7A0279011209787B0B7A0379011209AF
:10131300787CB57D0D7A0479021209727B007A001C
:1013230079021209787B017A0179021209787CBA71
:101333007D0D7A0479031209727B027A0079031214
:1013430009787B037A0179031209781208B8E960F6
:101353002FD2F0A29130F001B39291E4F508F50990
:101363007808120B947C807D007A2F7B051208BECF
:1013730074021209E9E9FC7D007A2F7B0512094802
:1013830078007900801F742F28F582740539F5835E
:10139300E0C0E074B628F582740D39F583D0E0F02F
:1013A30008E8700109C3E89402E99400A2D265D069
:1013B3003340D378007900801F743128F582740597
:1013C30039F583E0C0E074BB28F582740D39F583E9
:1013D300D0E0F008E8700109C3E89402E99400A2A0
:1013E300D265D03340D378007900801F743428F558
:1013F30082740539F583E0C0E074C228F582740D68
:1014030039F583D0E0F008E8700109C3E89402E9F4
:101413009400A2D265D03340D3900533E0643160A9
:10142300030212AD9005AF7431F079017CAF7D05F5
:101433007A097B001208B2E90212C174F7120A2B6F
:10144300E9FEEAF8EBF9E8FAE9FB740B2EC0E08A4F
:10145300828B83D0E0F0900308E0F8A3E0F5838863
:1014630082A3A3A3A3A3E0600678617988800478AC
:10147300417988E8C0E08A828B83A3D0E0F0E4C995
:10148300F8E8C0E08A828B83A3A3D0E0F090030145
:10149300E0C0E08A828B83A3A3A3D0E0F09003088B
:1014A300E0F8A3E0F5838882A3A3E0F8A3E0F98A38
:1014B300828B83A3A3A3A3E8F0A3E9F08A828B839F
:1014C300A3A3A3A3A3A3ECF0A3EDF0900308E0F878
:1014D300A3E0F5838882E0F8A3E0F98A828B83A3F3
:1014E300A3A3A3A3A3A3A3E8F0A3E9F0790A7F012D
:1014F300020A9774F7120A2BECFEEDFF8908A9087C
:10150300EAFCEBFD7A0A7B0312089AE9FB7A008076
:101513002BEAF87900EE28F582EF39F583E0C0E095
:10152300EBFC7D00EAF87900EC28F8ED39F9740A50
:1015330028F582740339F583D0E0F00AEAC39508ED
:1015430040CFEB2508F97F01020A9774F7120A2BA3
:101553007E7D7F0312092A1208D67901EEFAEFFB8A
:101563001209128E828F83E0C2E7F08E828F83E0AE
:10157300640570528E828F83E0F97A7E7B031209B1
:10158300128E828F83A3E0A2E55004D2F08002C2C0
:10159300F0A2F0E43390063DF078817903888289E4
:1015A30083A3E0A2E740030216608E828F83A3A386
:1015B300A3E0F8900301E068600302166090030261
:1015C3007401F00216608E828F83E024F590063A50
:1015D300F08E828F83E0F97A7E7B031209128E826A
:1015E3008F83A3E0A2E55004D2F08002C2F0A2F000
:1015F300E43390063DF08E828F83A3A3A3A3A3A31A
:10160300A3A3E0F8A3E0F9900636E8F0A3E9F0908D
:10161300063B7487F0A37403F090063AE0F8339521
:10162300E0F990063BE028F8A3E039F98882898342
:10163300E090063EF088828983A3E0A2E750128EF1
:10164300828F83A3E054DF6441700690063F7401E8
:10165300F08E828F83A3A3A3E0900635F01208DCFB
:101663001209307F01020A9774F7120A2BEAFEEB84
:10167300FF1208EEE964017004790180751208DC39
:10168300900308EEF0A3EFF090063B7400F0A37410
:1016930000F09003037401F09003047400F0A3744A
:1016A30000F0A37400F0A37400F0900308E0F8A323
:1016B300E0F5838882A3A3A3A3E0F91208FA9003B9
:1016C30008E0F8A3E0F5838882E0FAA3E0FB1209BF
:1016D30000900308E0F8A3E0F5838882A3A3E0FA6F
:1016E300A3E0FB1209067AA67B081209361208D674
:1016F30079007F01020A9774F5120A2BEAFEEBFFC9
:101703008C088D09890A900303E0700312091EE512
:101713000AC394674003750A6712093C12092AA990
:101723000AAC08AD09EEFAEFFB1208A0E9F97A0A50
:101733007B0312090C120930120918E960027E01B9
:10174300900308E0F8A3E0F5838882A3A3A3A3A3EF
:10175300E0601B9003027400F07A4A7B021208E8EF
:10176300900302E060047E0080067E0180027E001A
:10177300900303E07003120924EE7007900301E065
:101783002401F0EEF97F03020A97C082C08390061A
:101793003FE0F9D083D0820200EF74F4120A2B8A5F
:1017A300088B09ECFEEDFF1208DC90063AE0F833F3
:1017B30095E0F9C3E89EE99F500D90063AE0F50ADB
:1017C3003395E0F50B80048E0A8F0B780A120B9485
:1017D30090063BE0FCA3E0FDAA08AB0912098A745A
:1017E300021209E9740C120A1FE0F508A3E0F509D7
:1017F300E508450960241208F4E9FA90063EE0F88A
:101803003395E0F9EAFA7B00E8C39AF8E99BF98596
:101813000882850983E8F0A3E9F090063F7400F09D
:101823001208D690063AE0F83395E0F9C3E89EE94A
:101833009F500790063AE0F98002EEF97F04020A0E
:1018430097C082C0839003037401F012091ED083F2
:10185300D0820200EF74F4120A2B8A088B098C0AD7
:101863008D0B53F1FE43F30C53F2F375868075C46D
:10187300807808120BA5000000000C000000B004E3
:101883000000CB1860090000D318C0120000DB1859
:1018930080250000E31840380000EB18004B0000DF
:1018A300F31880700000FB1800960000031900E194
:1018B30000000B19002C0100131900C201001B19B1
:1018C3000084030023192B1975C23B75C505805E7F
:1018D30075C23B75C506805675C23B75C507804EFC
:1018E30075C23B75C508804675C2D875C508803E6C
:1018F30075C23B75C509803675C2D875C509802E7A
:1019030075C23B75C50A802675C2D875C50A801E87
:1019130075C23B75C50B801675C2D875C50B800E95
:1019230075C2D875C50C800675C23B75C50A75C4EA
:1019330002438640D2AA75C1009004A97400F090B6
:1019430004AA7400F090052C7400F090052D740027
:10195300F09004AB7400F090052E7400F07F040245
:101963000A9774F7120A2B90052CE0F890052DE0E6
:10197300C398501F90052CE0F8790090052DE0FEE8
:101983007F00E8C39EF8E99FF9E824FFF8E934FFF4
:10199300F9803390052DE0F87900C3E498F8E499D1
:1019A300F990052CE0FE7F00E82EF8E93FF9E824E2
:1019B3007FF8500109C3E89CE99D5006780179003E
:1019C300800478007900E84960067A007B00805B38
:1019D30078007900800F90052DE02401F0439A04EC
:1019E30008E8700109C3E89CE99D503B8A828B8318
:1019F300E0C0E090052DE0FE7F0074AC2EF582740C
:101A0300043FF583D0E0F08A828B83A3AA82AB8361
:101A130090052E7400F090052DE0C3947F40B7909D
:101A2300052D7400F080B6E8FAE9FB7F01020A97FE
:101A3300C082C083906189E04460F090619074D566
:101A4300F09061FA7409F09061B27415F09061AE90
:101A53007400F01209307900D083D0820200EF794C
:101A6300490200EFC082C08375F005E9A424D49035
:101A7300618FF0D083D0820200EFC082C083EA90EE
:101A83006174F0E4CBFAEA906175F0D083D08202FE
:101A930000EFC082C083EA906172F0E4CBFAEA906F
:101AA3006173F0D083D0820200EFC082C08375E1FE
:101AB300EE7591FD78008010E8FC7D00EA2CF5823C
:101AC300EB3DF583E0F5D908E8C39940EBD083D02B
:101AD300820200EFC082C0838015E5D9C0E08A820C
:101AE3008B83D0E0F08A828B83A3AA82AB8319E92C
:101AF30070E8D083D0820200EF75E1E9E591A2E1BD
:101B030050FA7591FD79000200EF75E1EC75E1E3A0
:101B13000200EF75E1EF75E1EC0200EFC082C083D4
:101B23009061A3E0C2E6F0539AFED083D082020014
:101B3300EFC082C0839061A3E0D2E6F0439A01D064
:101B430083D0820200EFC082C083A2AFE433F8C225
:101B5300AF900427EAF0A3EBF0E8A2E092AFD083C2
:101B6300D0820200EFC082C083906193E054227060
:101B7300F8D083D0820200EF74F6120A2BEAF8EB56
:101B8300F9740A120A1FE0FEA3E0FF80188C828D0D
:101B930083E088828983F0A3A882A9838C828D83C2
:101BA300A3AC82AD838E088F09E50824FF1EE509E7
:101BB30034FFFFE508450970D47F02020A97C0820B
:101BC300C08379001208D0D083D0820200EFEBC328
:101BD30013FBEA13FAEAF8EBF9E824FFFAE934FF16
:101BE300FBE8496012000000000000000000000054
:101BF300000000000080DE0200EFE5C65480F853C9
:101C0300BEFBE59DA2E550FAE59DA2E240F4007417
:101C130001697007744948F5C68005E9700288C6F2
:101C2300AAC6A89EEA6870FA43BE040200EFC08207
:101C3300C0831208E29006411209BD12094212083C
:101C4300D6D083D0820200EFD2AF0200EFC2AF0240
:021C530000EFA0
:04000005000000D720
:00000001FF
